:10000000FC7F0020E1050000CD050000D1050000C7
:1000100000000000000000000000000000000000E0
:10002000000000000000000000000000D5050000F6
:100030000000000000000000D9050000DD05000000
:1000400010B5064C2378002B07D1054B002B02D0AE
:10005000044800E000BF0123237010BD58000020B9
:10006000000000001C17000008B5084B002B03D04F
:100070000748084900E000BF07480368002B03D089
:10008000064B002B00D0984708BDC046000000007A
:100090001C1700005C00002054000020000000003D
:1000A00010B5C3699C07FCD403680224A343036012
:1000B000C46901231C42FBD1046823430360036825
:1000C000DC07FCD4C46901231C42FBD1C469DC40B9
:1000D0001C42F7D1084B1A430260C3695A07FCD48B
:1000E000C0239B0243608181C3699C07FCD40368E1
:1000F00002221343036010BD04000040037EDA07B0
:10010000FCD5018570470000027E01235107FBD515
:10011000428B1A4207D1428BDA401A4203D1428BFA
:1001200092081A4202D0034B01221A70008DC0B20D
:100130007047C0467400002070B50368041C988B9B
:100140001A1C0821FF32084228D0988B174D014312
:10015000802099839872112353704021144B917120
:1001600050715E68C0202E40800506435E605E6967
:100170003540284358610F4818600F4818615D6882
:100180000E4828408025AD02284358605868800BEF
:100190008003586000235171237105E0137ADA0659
:1001A00002D5201C00F0B2FA207970BDFFFFFF8F4E
:1001B0008C0100208C0000200C010020FF3F00F08B
:1001C000002303714371044B016083600B780222AA
:1001D00013430B707047C0463901000038B5364BE9
:1001E0002021DA6901200A43DA61344B06241A78A7
:1001F00002431A70324B0F22197891431970197803
:10020000214319702F490C782043087019780A404F
:100210001A701A7860210A431A702B4B2B4A5A80A5
:100220005A7852B2002AFBDB294B01211A780A4383
:100230001A709A78D107FCD426480268510B1F2205
:100240001140914200D1052111408C011D8D2249A0
:100250002940214319850468A10C0A401F2A00D1B6
:100260001D221C8D1F210A408C4322431A850268DF
:100270000721D20D0A408A4200D103220A40188D7C
:100280001103164A02400A431A8519787F220A4050
:100290001A701A78042112480A431A7058621A898F
:1002A0000C218A431A811A8901218A431A8100216B
:1002B000802201F0C8F838BD0004004058440041D5
:1002C0003C44004159440041000C004006400000FD
:1002D00000500041246080003FF8FFFFFF8FFFFFC8
:1002E0008C010020F7B5141C234A5F0101971D1CE7
:1002F000D319061C5869271C4000400F03301033E7
:10030000C74006D00F1C8022596812060A435A6063
:1003100009E02F1C7B1E9F41184BBF01FF18381CA2
:10032000221C01F087F8019913480835421817611B
:10033000131C5269A104920B890C92030A435A615F
:1003400059690F4A02200A405A616B01F318D979A2
:10035000032211400143D8799043021C0A43DA7109
:100360005979802252420A435A716B01F318DB79A2
:100370009A07FAD5201CFEBD8C0100200C0100203C
:10038000FF3F00F0F8B51E4E041C3378151C002BFF
:1003900012D11C4B1C4A1A645A6C920B92035A6479
:1003A000586C1A4A02405A64A2235B00E25C402067
:1003B0000243E254012333704827FF37E25D0123F3
:1003C00013401AD00F4B5A6C9204920CAA4202D2DC
:1003D0005D6CAD04AD0C081C2A1C0B4901F02AF819
:1003E000E25D03231A4001210A43E15D99430B1C9E
:1003F0001343E3550023337000E01D1C281CF8BD97
:10040000750000208C010020CC000020FF3F00F090
:10041000FF30827930239A43131C2022002900D117
:1004200010221343837170470C4BFF305A6902212D
:10043000920B92035A61027A03231A400A43017A0B
:1004400099430B1C13430372827980235B4213434D
:100450008371037A9A07FCD57047C0468C0100204F
:1004600080235B421943C9B28172704770B5A023E3
:1004700003225B00C254134B134A5C6CC02114402E
:1004800089050C4346255C64FF35402444550F4DD7
:1004900030261D6490256D0046555D6B154029433F
:1004A000922559636D0080214155094D1D63B0258A
:1004B0006D0044555C6F22405A67B2235B00C15403
:1004C00070BDC0468C010020FFFFFF8FCC000020D4
:1004D0004C01002030B5344B1E215A688A4302215A
:1004E0000A4332495A608B69082213438B61304AB0
:1004F000304B1382D36801200342FBD02E4B18707F
:100500001878C40704D52C48407840B20028F7DB9F
:1005100001209860587840B20028FBDB274C264821
:100520004460587840B20028FBDB82242248E40172
:100530004480587840B20028FBDB908C8024A04394
:100540009084D068C506FCD51D4C1948C462D46897
:100550001748E506FBD5848C1A4D2C438484D46857
:100560001348E506FBD5848C02252C438484D0688F
:100570000406FCD50E48C0684506F8D5D068C40608
:10058000FCD500229A605A7852B2002AFBDB0E4852
:10059000094A50605A7852B2002AFBDB00230B72E2
:1005A0004B728B72CB7230BD0040004100040040A2
:1005B0000008004006F8FFFF000C004001000100A9
:1005C0000300FF7D040A0000000703000EBEFEE7E3
:1005D0000DBEFEE705BEFEE702BEFEE701BEFEE77A
:1005E0000E4A0F4838B5824204D10E4A0E4B934250
:1005F0000ED10AE00D4C9442F7D00023D118884266
:10060000F3D9E55804330D60F8E700F011F804E081
:100610009342FAD2002102C3FAE7FEE7000000206D
:1006200058000020980300205800002020170000E8
:1006300073B52D4B00221978012319402B4B0AD199
:1006400018682B4A904201D1196026E01A60294AA5
:10065000013A002AFCD11A60274B19681C1C4A1C5D
:100660001BD0DAB2002A18D1244A8020244DC003BE
:10067000062650602E709061106A6A464002C00FD4
:10068000D07107321278002A07D081F30888FF2240
:1006900093431C4A936063681847FFF71BFF62B6D9
:1006A00000F0F6FC00F0CCF9041CA368201C98476D
:1006B000154B002801D001221A701A78002A05D0A3
:1006C000002000F039FA00F095FAFCE71B78002BC7
:1006D000EBD100F051FD0028E7D0012000F02CFA0A
:1006E00000F088FAFCE7C04638040040FC7F002098
:1006F0003581730748E801000020000000440041F4
:100700005644004100ED00E076000020F8B5046892
:10071000051C201CFF30037AB64A10210B430372DC
:10072000B54F1378B5493B705378B54E0B7093783D
:100730003380D178338809020B4333801179B14B70
:10074000198051791F8809020F431F809779AE499C
:100750000F80D2790F8812023A430A8040224271F8
:10076000A648A54F02783878A84F12020243181CF9
:10077000BA4200D199E01EDC802149008A4200D1B2
:1007800058E107DC812A6AD0822A6ED0802A00D004
:1007900050E164E081235B009A4200D1AFE000DACF
:1007A00023E1C0239B009A4200D143E1984B9A4237
:1007B00000D11AE13EE190231B019A4242D015DCA0
:1007C000D023DB009A4222D088231B019A4242D0D8
:1007D000A023DB009A4200D02CE1201CFFF724FE6E
:1007E0003188286889B2FFF73BFE27E1894B9A429E
:1007F00000D1FAE000DC1DE1874B9A4200D1E8E02D
:10080000864B9A4200D015E133886B71EDE0338856
:100810001B0A012B08D10B8812222868934201D8A9
:100820000A8892B27E49DCE033881B0A022B00D092
:1008300000E10B8843222868934201D80A8892B2CB
:100840007849CEE03388201C2B71FFF7EDFD201C8A
:10085000FFF70CFEF2E0291C01C90122C1E0724938
:1008600000230B8028680222BCE06F4900220A8026
:100870001888502210406D4A10701E880F2030409A
:1008800018801888032800D9D4E012781B88083310
:100890005B01E418A379002A01D09B0600E0DB0687
:1008A000DB0F0B80286802229BE019887F2291438E
:1008B0005E4AC9B2117018880F2101401980318831
:1008C000002900D0B6E01988002900D1B2E01988CB
:1008D000032900D9AEE012781B8808335B01E318C6
:1008E000002A05D05A7930218A4320210A4304E0A6
:1008F0005A7930218A43102002435A7175E00288E8
:100900007F239A43494BD2B21A7001880F220A40C2
:1009100002803288002A00D08CE00288002A00D1B0
:1009200088E00288032A00D984E01B78002B27D0B6
:10093000038808335B01E3189B79990655D5038832
:10094000302108335B01E3181A798A4320210A43D6
:100950001A71038808335B01E318DB795A0644D522
:100960000388602108335B01E318DA798A43402168
:100970000A43DA710388022208335B01E31826E098
:10098000038808335B01E3189B79DF062DD50388C4
:10099000302108335B01E3181A798A4310210A4396
:1009A0001A71038808335B01E318DB7999061CD5BB
:1009B0000388602108335B01E318DA798A43202138
:1009C0000A43DA710388012208335B01E3181A71C4
:1009D0000BE00B8808222868934201D80A8892B25B
:1009E00013490023FFF77EFC28E0201CFFF71CFDC5
:1009F00024E0C0468C000020770000207800002012
:100A00007A0000207C000020820000200203000009
:100A10000103000021200000A1210000212200008C
:100A200070140000000000207E00002080000020E4
:100A300044000020201C0121FFF7EAFCF8BDC0465D
:100A400010B5054B054C2360FFF7C8FB201C21683F
:100A5000FFF7B6FB201C10BD005000410C02002027
:100A600007B5054B0122019001A91868131CFFF777
:100A700039FC01200EBDC0460C02002013B5054B09
:100A80006C4607341868211C0122FFF77BFC207894
:100A900016BDC0460C02002010B5074C201CFFF705
:100AA0004BFB031C0020834205D022684823FF3300
:100AB000D05C0123184010BD0C02002010B5054A7F
:100AC0000C1C031C191C10680123221CFFF70AFCD4
:100AD000201C10BD0C02002070B5084C061C201C08
:100AE0000D1CFFF729FB0023984205D02068311C1C
:100AF0002A1CFFF747FC031C181C70BD0C020020C9
:100B0000F8B50C4C051C201C0E1CFFF715FB002330
:100B1000271C341C98420AD0002C07D0291C221C08
:100B20003868FFF72FFC241A2D18F5E7331C181C22
:100B3000F8BDC0460C020020012805D1054B064A2D
:100B40001A60064B187004E0002802D1044A014BD9
:100B50001A6070477C020020A41400008900002065
:100B6000F014000030B51A4B85B01B78002B29D04B
:100B7000042901D1026804E0022901D1028800E0C1
:100B80000278490004A843180B3B5C1AA3420BD01F
:100B90000F201040092802D83025284300E03730C4
:100BA00018701209013BF1E701A830230370782384
:100BB00043700A2243189A700D22DA70054B0431F3
:100BC0001B6801E0034B1B68DB68984705B030BD2C
:100BD000880000207C02002072B6EFF30883044AEC
:100BE0001360036883F30888436818477047C0465A
:100BF00080020020F0B58FB006A9CD4A0B1C31CA87
:100C000031C351CA51C360CA60C3CA4CCA48A36841
:100C10007A255B035B0F9B005B58C8490360A268A1
:100C200092B253430A60C649C64A0B600023136060
:100C3000C54B1D70C54BC64D1B68281C1B69402148
:100C40009847C44B00221860C34B1D60C34BC34D73
:100C5000C04F1A60286839688842EBD2BE4B1B68C7
:100C60001A78FF2A00D1F7E1232A00D0CEE1BC4E4A
:100C70003378002B05D0B54BBA481B680221DB68DE
:100C80009847B14B1B78532B38D13B682A68934265
:100C90001ED9B14801322A609A1AB34B01681B6809
:100CA00001310160B14E9A4201D2326000E03360FE
:100CB000A44832680068029000F0BCFB33682968E1
:100CC0005A182A60A44A1668F1181160A84A1370CD
:100CD0002B68013B2B60A04B1A68013A1A60A44BA9
:100CE000A14A1B7811688B4206D2984A954812682F
:100CF0000068C91A92699047C04676E1522B07D125
:100D0000904A924B10681B68974A5B6911686BE1C7
:100D10004F2B05D18B4B944A1B6812681A7064E103
:100D2000482B05D1874B904A1B6812681A805CE1FA
:100D3000572B05D1834B8C4A1B6812681A6054E10B
:100D40006F2B03D17F4B0121186807E0682B08D176
:100D50007C4B85481B6802211B880360FFF702FF5C
:100D600043E1772B06D1774B7F481B6804211B6832
:100D70000360F3E7472B13D17B4B1868FFF72CFF79
:100D80007C4B1B6883F3088862B67B4B1B78002B77
:100D900000D12AE16D4B06201B681B68984724E1AF
:100DA000542B04D101233370684B1B685CE04E2B3D
:100DB0000BD13378002B05D1644B6A481B680221A4
:100DC000DB689847002333700FE1562B50D15F4DFD
:100DD00001212B686948DB6898472B680321DB6891
:100DE00067489847674E2B68301CDB68012198479D
:100DF0002B680D21DB68644898472B68301CDB6842
:100E000001219847544F614B544E3B60002333609F
:100E10003A1C311C1368581C10601B780393002B7C
:100E200003D00B6801330B60F4E72B683168DB6893
:100E3000564898472B685348DB6801219847039828
:100E4000306053483860444A1368591C11601A785E
:100E5000424B002A03D01A6801321A60F3E72A686D
:100E60001968D36898472B68DB683E480221BBE0CD
:100E70003D4A582B15D1304E314D366813682A68DB
:100E8000B100934208D25808E06142482080207D9A
:100E9000C507FCD55B18F4E72C4B3F481B68DB68A3
:100EA000A1E0592B33D11268264B3C49002A02D1CC
:100EB0001B680B6026E00868196863688025AB43EF
:100EC00092086360002A1DD0354B2380237DDE0706
:100ED000FCD50023184D2D680095AD08AB4202D318
:100EE000304D258006E09342FAD09D0046590133EB
:100EF0004E51EFE7257DEE07FCD59D0049194019BD
:100F0000D21ADFE7114B28481B68DB686BE05A2BCD
:100F10006BD10C4B17681D680026EF19BD4245D0F8
:100F20002878311C00F04AF90135061CF6E7C04666
:100F30008414000000400041340200202C020020F4
:100F40002802002078020020240200207C020020D9
:100F5000380200201C020020200200203002002065
:100F600088000020E4140000840200208802002091
:100F7000180200208002002089000020C014000018
:100F8000E9140000C21400000C150000C414000095
:100F9000D014000002A5FFFFD91400008400002037
:100FA00044A5FFFF04A5FFFFDD1400002E4D2F48D0
:100FB0002B680121DB68984707230F223240111C60
:100FC00036093031092A00DD07311020C0186A4681
:100FD0008154013BF1D22B6804A8DB6808219847B3
:100FE0002B682348DB6803219847224D7A232B7016
:100FF000214B00221A60214B1B7893422CD01A4BB4
:1010000001211B681E48DB68984725E0111C303918
:10101000C8B2194B092804D81E683201114319605F
:101020001AE0111C4139052903D81868373A010123
:1010300006E0111C6139052904D81D68573A2901B9
:101040000A4308E02C2A03D10E4A1E68166001E00C
:1010500008490A7000221A600B4B1A6801321A60A4
:101060000A4B1A680132F2E57C020020E11400000C
:10107000E3140000240200208402002088000020E5
:10108000E714000078020020300200202002002037
:1010900010B51C4B01201A78022402431A701A4B17
:1010A0000F22197891431970197821431970174943
:1010B0000C782043087019780A401A701A78202199
:1010C0000A431A70124B04211A6A0A431A62114B1E
:1010D000114A5A805A7852B2002AFBDBC4220F48C8
:1010E0000F499203FEF7DCFF0E4A002313700E4AED
:1010F00013700E4A13700E4A13700E4A13700E4A84
:10110000137010BD4A440041354400414B44004136
:1011100000040040000C00401440000000080042A1
:1011200004C500008C020020130300208D02002063
:1011300090020020140300201103002008B5C1B262
:101140000248FEF7DBFF012008BDC0460008004250
:10115000024B187E4007C00F7047C046000800428F
:1011600008B5FFF7F5FF0028FBD00248FEF7CCFFDB
:1011700008BDC0460008004208B5FFF7E9FF00239C
:10118000984205D0FFF7ECFF031C233B5A42534122
:10119000181C08BD70B5041C0D1C4618B44204D0C0
:1011A0002078FFF7CBFF0134F8E7281C70BD10B59D
:1011B000041CFFF7D5FF2070012010BD0B0A58401A
:1011C000034B4000C05A0902484080B27047C046F5
:1011D0001A150000F7B50024051C0F1C261CBC4284
:1011E00020D0FFF7BDFF114BC0B21B780190002B40
:1011F0001AD1311CFFF7E2FF0D4B061C1A88002A9A
:1012000004D10C4A11782A1C002907D001996A1CC4
:101210002970802F02D11988013919800134A4B2B4
:10122000151CDCE7301C00E00120FEBD110300208E
:101230008E02002012030020F0B53E4E85B0002241
:1012400003900C1C32703C4B914201D1012201E011
:101250003A490C801A707F231C4201D080349C4391
:10126000FFF77EFF3378C0B2002B07D00025357022
:10127000FFF776FF3378C0B2AB4236D1432803D0B4
:10128000712853D01528EBD1012300930120FFF7DB
:1012900055FF0098FFF752FF00998025C843C0B260
:1012A000FFF74CFF039B00270293244A1388002B6F
:1012B0001DD1214901930978002918D10198FFF720
:1012C0003DFF391C0198FFF779FF013D071C002DF8
:1012D000EBD1000AC0B2FFF731FFF8B2FFF72EFFE3
:1012E000FFF73EFF3378002B0AD035701FE00299DC
:1012F000013B09781380029B019101330293DDE7E2
:10130000C0B2062807D1009B03990133DBB28031BC
:101310000093803C0391002CB8D10420FFF70EFF0E
:10132000FFF71EFF044B01251C7000E00025281C60
:1013300005B0F0BD11030020120300208E02002032
:10134000F0B5384C87B0002301902370994201D149
:10135000012301E0344A1180344A6426137043208B
:10136000FFF7ECFE324FFFF7F3FE002803D1002F0A
:1013700003D0013FF7E7002F03D1013E002EEED14D
:101380004DE00125FFF7ECFE2378002B38D1C0B2E9
:101390000290012805D004283DD10620FFF7CEFE9B
:1013A00039E005AE0221301CFFF714FF01988021BF
:1013B000FFF710FF23780390002B18D1FFF7D0FE22
:1013C0000702FFF7CDFEBFB223783F18BFB2012B53
:1013D0000DD0039B9F4207D13378AB4204D1EB433E
:1013E0007278DBB29A4204D01820FFF7A7FE0023E0
:1013F00003E00620FFF7A2FE029B2278002A02D01B
:10140000002626700BE0012B05D1019A6B1C80325F
:10141000DDB20192B6E7054A002313700126301CA5
:1014200007B0F0BD110300208E020020120300203F
:1014300000350C0010B50023934203D0CC5CC4549B
:101440000133F9E710BD031C8218934202D01970D2
:101450000133FAE770470000F8B5C046F8BC08BC95
:101460009E467047F8B5C046F8BC08BC9E4670471B
:10147000120100020200004041234D000002000062
:101480000001000008000000100000002000000023
:101490004000000080000000000100000002000089
:1014A000000400003D110000611100005111000016
:1014B00095110000AF110000391200004113000027
:1014C000760020004E6F76203239203230313500E0
:1014D00032323A32363A333900580A0D00590A0D81
:1014E000005A00230A0D003E00322E30000000009A
:1014F000610A00007D0A0000990A0000BD0A000090
:10150000D90A0000BD0A0000010B00005B417264B3
:1015100075696E6F3A58595A5D00000021104220DB
:1015200063308440A550C660E770088129914AA1C4
:101530006BB18CC1ADD1CEE1EFF13112100273323B
:101540005222B5529442F772D662399318837BB314
:101550005AA3BDD39CC3FFF3DEE3622443342004CB
:101560000114E664C774A44485546AA54BB5288564
:101570000995EEE5CFF5ACC58DD55336722611161B
:101580003006D776F6669556B4465BB77AA71997B4
:101590003887DFF7FEE79DD7BCC7C448E5588668A3
:1015A000A7784008611802282338CCC9EDD98EE904
:1015B000AFF9488969990AA92BB9F55AD44AB77A7B
:1015C000966A711A500A333A122AFDDBDCCBBFFB54
:1015D0009EEB799B588B3BBB1AABA66C877CE44C8B
:1015E000C55C222C033C600C411CAEED8FFDECCDA4
:1015F000CDDD2AAD0BBD688D499D977EB66ED55E5B
:10160000F44E133E322E511E700E9FFFBEEFDDDFF3
:10161000FCCF1BBF3AAF599F788F8891A981CAB17F
:10162000EBA10CD12DC14EF16FE18010A100C230B1
:10163000E3200450254046706760B9839893FBA36C
:10164000DAB33DC31CD37FE35EF3B1029012F32201
:10165000D2323542145277625672EAB5CBA5A895BC
:1016600089856EF54FE52CD50DC5E234C324A01451
:1016700081046674476424540544DBA7FAB799874C
:10168000B8975FE77EF71DC73CD7D326F2369106A1
:10169000B01657667676154634564CD96DC90EF994
:1016A0002FE9C899E9898AB9ABA9445865480678F1
:1016B0002768C018E1088238A3287DCB5CDB3FEBAC
:1016C0001EFBF98BD89BBBAB9ABB754A545A376A41
:1016D000167AF10AD01AB32A923A2EFD0FED6CDD7C
:1016E0004DCDAABD8BADE89DC98D267C076C645C91
:1016F000454CA23C832CE01CC10C1FEF3EFF5DCF8C
:101700007CDF9BAFBABFD98FF89F176E367E554EE0
:10171000745E932EB23ED10EF01E00000000000059
:1017200009024300020100803209040000010202A4
:101730000000052400100104240200052406000115
:101740000524010001070583030800FF09040100C7
:10175000020A00000007058102400000070502029E
:101760004000000000C20100000008006900000005
:08177000410000000000000030
:04000003000005E113
:00000001FF
