:10000000FC7F00206906000055060000590600002C
:1000100000000000000000000000000000000000E0
:100020000000000000000000000000005D0600006D
:1000300000000000000000006106000065060000EE
:1000400010B5064C2378002B07D1054B002B02D0AE
:10005000044800E000BF0123237010BD58000020B9
:1000600000000000D41A000008B5084B002B03D094
:100070000748084900E000BF07480368002B03D089
:10008000064B002B00D0984708BDC046000000007A
:10009000D41A00005C000020540000200000000082
:1000A00010B50124C3695B081C42FBD1036802241C
:1000B000A34303600124C3691C42FCD104680123EB
:1000C00023430360012403681C42FCD10124C3695B
:1000D0001C42FCD1C3695B081C42F8D10A4B1A438D
:1000E00002600122C3699B081A42FBD1C0239B0214
:1000F000436081810122C3695B081A42FBD1026817
:1001000002231343036010BD040000400122037E5C
:100110001A42FCD0018570470122037E9B081A42D7
:10012000FBD0438BDA0705D4438B9A0702D4438B69
:100130005A0702D50122024B1A70008DC0B27047D7
:1001400074000020F8B5041C03689A8B11072FD5A2
:10015000998B08220A439A8380229A721120802167
:100160004900585440200621FF315854822149004B
:100170005A54144A5768144E3740C025AD052F43D2
:10018000576057693E4035435561104D1560104D1D
:10019000156156680F4D35408026B60235435560CF
:1001A0005568AD0BAD03556058540023237106E02C
:1001B0000822FF329B5CDA0601D500F001FB2079B2
:1001C000F8BDC0468C010020FFFFFF8F8C0000208F
:1001D0000C010020FF3F00F0016000230371437118
:1001E000034B83600A78022313430B707047C046A9
:1001F0004501000010B5394BD96920220A43DA6164
:10020000374B5822995C0120014399543C22995C58
:100210000F24A14399549C5C0621214399545921F0
:100220005C5C20435854985C0F2101409954985CC1
:100230006021014399542B4A2B4B5A801A1C537846
:100240005BB2002BFBDB294B197801220A431A70A1
:10025000191C01228B781A42FCD1254B1B689B0389
:10026000DB0E1F2B00D10523204A9901108D214B55
:1002700003400B4313851E4B1B685B02DB0E1F2BD9
:1002800000D11D23194A118D1F2081430B43138573
:10029000174B1A689201520F072A00D10322134B01
:1002A0001103188D144A02400A431A851A787F21D7
:1002B0000A401A70197804220A431A700F485862CB
:1002C0001A890C218A431A811A8901218A431A81C9
:1002D0000021802201F08DFA10BDC04600040040CC
:1002E0000044004106400000000C00400050004166
:1002F000246080003FF8FFFFFF8FFFFF8C0100208C
:10030000F0B5474680B4041C171C1D1C1E1C5B0165
:10031000274AD31810335B685B005B0F033301225D
:100320009A40BA4208D86B01214AD31858698022F2
:10033000120602435A610BE02A1C531E9A41920195
:100340001C4BD2189046101C3A1C01F049FA414649
:100350006B01174AD218131C1161B904890C526938
:10036000920B92030A435A615969134A0A405A612F
:100370002B1C08335B01E318DA7903210A400221C0
:100380000A43D979032081430A43DA7159798022DB
:1003900052420A435A710836760103250221A319F5
:1003A000DB792B401942FAD0381C04BC9046F0BDD2
:1003B0008C0100200C010020FF3F00F038B5041C28
:1003C000151C1F4B1B78002B13D11E4B1E4A1A64A1
:1003D0005A6C920B92035A64586C1C4A02405A643D
:1003E000A2235B00E05C40220243E2540122144B52
:1003F0001A704823FF33E35CDA071ED5114B5B6CA0
:100400009B049B0CAB4203D20E4B5D6CAD04AD0C58
:10041000081C0D492A1C01F0E3F94823FF33E25C74
:1004200003210A4001210A43E15C032081430A437E
:10043000E2540022024B1A7000E00025281C38BD4F
:10044000750000208C010020CC000020FF3F00F050
:10045000002908D00623FF33C25C30218A432021C3
:100460000A43C25407E00623FF33C25C30218A43AB
:1004700010210A43C254704710B5104B5A69920BB1
:1004800092035A610823FF33C25C03210A40022110
:100490000A43C15C0324A1430A43C2540623FF3329
:1004A000C15C802252420A43C2540824FF34032113
:1004B0000222035D0B401A42FBD010BD8C010020CC
:1004C00080235B421943C9B28172704770B5032221
:1004D000A0235B00C254134B5C6C134A1440C02130
:1004E00089050C435C6440244625FF3544550F4D77
:1004F0001D64302690256D0046555D6B15402943DF
:100500005963802192256D004155094D1D63B02529
:100510006D0044555C6F22405A67B2235B00C154A2
:1005200070BDC0468C010020FFFFFF8FCC00002073
:100530004C0100203E4B5A681E218A4302210A4387
:100540005A603C4B996908220A439A613A4A3B4BEC
:100550001A82191C0122CB681A42FCD00122384BA6
:100560001A7001211A780A4203D05A7852B2002A2E
:10057000F8DB0122324B9A601A1C53785BB2002BD5
:10058000FBDB304A2E4B5A601A1C53785BB2002BAF
:10059000FBDB8222D2012A4B5A801A1C53785BB2B1
:1005A000002BFBDB254B9A8C80218A439A84191CF3
:1005B0001022CB681A42FCD0234A204BDA62191C65
:1005C0001022CB681A42FCD01C4B998C1F4A0A435C
:1005D0009A84191C1022CB681A42FCD0174B998CB4
:1005E00002220A439A841A1C80214020D3681942AF
:1005F000FCD0D3681842F9D010491022CB681A42B7
:10060000FCD000220E4B9A601A1C53785BB2002B70
:10061000FBDB0F4A0A4B5A601A1C53785BB2002B63
:10062000FBDB044B00221A725A729A72DA7270471C
:10063000004000410004004006F8FFFF00080040B1
:10064000000C0040010001000300FF7D040A0000CF
:10065000000703000EBEFEE70DBEFEE705BEFEE787
:1006600002BEFEE701BEFEE710B5184B184A9A42DB
:1006700016D0131C174A9A4212D0144B144A9A42AD
:100680000ED2154B11480330C01A8008013080008B
:100690000023111C0F4AD458CC5004338342FAD1A2
:1006A0000E4B0F4A9A420DD00CD20E4B0B49033120
:1006B000C91A890801318900043BC918002204C302
:1006C0008B42FCD100F010F8FEE7C0465800002035
:1006D00000000020D81A0000040000209C03002025
:1006E000580000205C00002070B538232B4AD35CF2
:1006F000DA0703D500222A4B1A6012E0284B1A6849
:10070000284B9A4203D10022254B1A601DE0254A4E
:10071000234B1A60244B013B002BFCD10022204BC1
:100720001A60224B1A68531C0FD0214B21490B60D1
:10073000043BFF210B4208D182F30888FF22934338
:100740001D4A9360194B5B681847FFF7F3FE62B6CA
:1007500000F028FE00F060FA041C184E351C201C26
:10076000A2689047002802D00123144A13703378FE
:10077000002B05D0002000F0D1FA00F03FFBFCE791
:100780002B78002BEBD100F081FE0028E7D0012070
:1007900000F0C4FA00F032FBFCE7C0460004004061
:1007A000FC7F00203581730748E80100002000002D
:1007B000042000000C02002000ED00E07600002084
:1007C000F8B5061C04680823FF33E15C10220A43D5
:1007D000E254AD4B1A78AD4D2A705A78AC490A7084
:1007E0009878AC4A10801788D87800023843108077
:1007F0001879A94A10801788587900023843108068
:100800009879A64A10801088DB791B020343138075
:10081000402282235B00E2540B782A781B021343A8
:100820009F4A934200D1E7E026DC802252009342A7
:1008300000D11FE180225200934209DC812B00D1BC
:1008400093E0822B00D198E0802B00D0D4E184E0AB
:1008500081225200934200D136E18122520093421C
:1008600000DA0CE1C0229200934200D1BBE08D4A35
:10087000934200D1BCE0BFE19022120193425BD0D1
:100880009022120193420DDCD022D20093421CD060
:1008900088221201934259D0A022D200934200D064
:1008A000AAE13FE0804A934200D18BE104DC7F4A19
:1008B000934200D1DEE09FE17D4A934200D185E181
:1008C0007C4A934200D190E196E1724B1B881B0A4F
:1008D000012B0ED13068714B1B889BB21222122B58
:1008E00002D86E4B1A8892B273490023FFF708FDB5
:1008F00086E1684B1B881B0A022B0ED13068674BC0
:100900001B889BB24322432B02D8644B1A8892B2B5
:100910006A490023FFF7F4FC72E1201C0121FFF774
:1009200097FD6DE1201CFFF7A7FD5A4B198889B28E
:100930003068FFF7C5FD63E1564B1B883371201CFF
:10094000FFF79AFD201CFFF7C1FD59E1311C01C9D9
:1009500001220023FFF7D4FC52E1594900230B8008
:1009600030680222FFF7CCFC4AE1554900230B8096
:1009700030680222FFF7C4FC42E10022504B1A808B
:10098000454B1988502211404E4A117019880F2288
:100990000A401A801B889BB2032B1FD8494B1B7837
:1009A000002B0AD03C4B1B8808335B01E418A2796A
:1009B0009206D20F424B1A8009E0374B1B8808334E
:1009C0005B01E418A279D206D20F3D4B1A80306841
:1009D0003B4902220023FFF793FC11E1201C012177
:1009E000FFF736FD0CE1201C0121FFF731FD07E187
:1009F000201CFFF741FD03E1274B19887F2291431B
:100A0000C9B2304A117019880F220A401A80214B4E
:100A10001B889BB2002B28D11F4B1B889BB2002B3D
:100A200023D01D4B1B889BB2032B1ED8254B1B7854
:100A3000002B0BD0184B1B8808335B01E3185A7945
:100A400030218A4320210A435A710AE0124B1B8845
:100A500008335B01E3185A7930218A4310210A4395
:100A60005A71201CFFF708FDCAE0201C0121FFF786
:100A7000EFFCC5E0201C0121FFF7EAFCC0E0201CD0
:100A8000FFF7FAFCBCE0C0468C0000207700002095
:100A9000780000207A0000207C00002082000020E6
:100AA000020300000103000021200000010B0000F0
:100AB000A1210000212200001C18000000000020DD
:100AC0007E000020800000204E4B19887F22914339
:100AD000C9B24D4A117019880F220A401A804B4B37
:100AE0001B889BB2002B68D1464B1B889BB2002B06
:100AF00063D0444B1B889BB2032B5ED8424B1B78C0
:100B0000002B2BD03F4B1B8808335B01E3189B79EC
:100B10009A064ED53B4B1A8808325201A218117919
:100B2000302081432020014311711B8808335B0171
:100B3000E318DB795A063CD5324B1A880832520149
:100B4000A218D0796021884340210143D1711B88CC
:100B500008335B01E31802221A712AE0294B1B8833
:100B600008335B01E3189B79DA0622D5254B1A88F6
:100B700008325201A218117930208143102001431C
:100B800011711B8808335B01E318DB799A0610D5D5
:100B90001C4B1A8808325201A218D0796021884370
:100BA00020210143D1711B8808335B01E318012226
:100BB0001A71201CFFF760FC22E0201C0121FFF7C6
:100BC00047FC1DE0201CFFF757FC19E03068104B74
:100BD0001B889BB20822082B02D80D4B1A8892B2B0
:100BE0000C490023FFF78CFB0AE0084B1B8873714C
:100BF000201CFFF741FC03E0201C0121FFF728FC2B
:100C0000F8BDC0467C000020800000207A00002053
:100C1000820000204400002010B5054C054B2360E5
:100C2000FFF7E8FA201C2168FFF7D6FA201C10BD58
:100C3000100200200050004100B583B00190054B28
:100C4000186801A901220123FFF75AFB012003B014
:100C500000BDC0461002002010B582B0054B1868D8
:100C60006C460734211C0122FFF7A8FB207802B054
:100C700010BDC0461002002008B50748FFF762FA11
:100C8000031C0020002B06D0034B1A684823FF33B7
:100C9000D05C0123184008BD1002002010B5031CD1
:100CA0000C1C044A1068191C221C0123FFF728FBA6
:100CB000201C10BD1002002038B5051C0C1C074874
:100CC000FFF740FA0023002806D0044B1868291CBF
:100CD000221CFFF773FB031C181C38BD10020020F8
:100CE000F8B5051C0F1C0C48FFF72CFA0023002850
:100CF00010D0002F0BD03C1C074E3068291C221C42
:100D0000FFF75CFB241A2D18002CF6D101E03B1CE8
:100D100000E03B1C181CF8BD10020020012806D181
:100D2000064A074B1A600122064B1A7004E000289D
:100D300002D1054A024B1A607047C04650180000A5
:100D40008002002089000020A8180000F0B585B0BE
:100D5000214B1B78002B2FD0042901D1036830E0F0
:100D6000022901D103882CE003784D0004A8421920
:100D70000B3A002D29D10DE0341C1C40092C02D85F
:100D80003C43147001E0373414701B09013A013000
:100D9000A842F1D301A830230370782343700131B6
:100DA00049000A23435445190D23EB700B4B1B6874
:100DB0000231DB6898470CE0084B1B68DB689847FA
:100DC00007E04D0004A842190B3A00200F263027F7
:100DD000D2E705B0F0BDC0468800002080020020A8
:100DE00072B6EFF30883044A1360036883F308883C
:100DF000436818477047C04684020020F0B55F463C
:100E000056464D464446F0B48DB004A9C14A0B1C69
:100E100031CA31C391CA91C3A0CAA0C3BE4A936864
:100E20005B035B0F9B005B58BC490B60926892B2FE
:100E3000BB490A605343BB490B60BB4B00221A609D
:100E40007A22BA4B1A70BA488346BA4C01340194DC
:100E5000B94C5D462B681B69201C40219847B74B55
:100E60001860B74B1C600022B64B1A600028EFD008
:100E7000B34C27683B78FF2B00D149E2232B00D0ED
:100E800017E2B14B1B78002B05D0A94B1B68DB6820
:100E9000AE4802219847A54B1B78532B3ED1A74B58
:100EA0001B68A84A1268934221D9A54801680131FC
:100EB00001600132A34802609A1AA54B1868824269
:100EC00002D2A44B1A6001E0A24B1860964B18683E
:100ED000A04D2A6800F084FC2B689A4A1068191803
:100EE0001160974A1568E91811609B4A1370954B79
:100EF0001A68013A1A60924B1A68013A1A60964BC6
:100F00001B78934A11688B4206D2894A1268864838
:100F10000068C91A92699047C046B9E1522B08D1BE
:100F2000834B1B68804A1068894A11685B6998473F
:100F3000AEE14F2B05D17C4B1B68854A12681A70B5
:100F4000A6E1482B05D1784B1B68814A12681A80AC
:100F50009EE1572B05D1744B1B687D4A12681A60BD
:100F600096E16F2B05D1704B18680121FFF7EEFE5B
:100F70008EE1682B08D176486B4B1B681B88036099
:100F80000221FFF7E3FE83E1772B08D1664B1B6854
:100F90001B686F4803600421FFF7D8FE78E1472BF8
:100FA00013D16B4B1868FFF71BFF6C4B1B6883F367
:100FB000088862B66A4B1B78002B00D168E15C4B55
:100FC0001B681B680620984762E1542B09D1012257
:100FD0005D4B1A70564B1B68DB685C4802219847D2
:100FE00056E14E2B0DD1584B1B78002B05D1504BA1
:100FF0001B68DB685548022198470022524B1A7043
:1010000046E1562B58D14A4D2B68DB6855480121E3
:1010100098472B68DB685448032198472B68534E48
:10102000DB68301C012198472B68DB6850480D2194
:1010300098472B68DB68301C012198470022414B00
:101040001A603F4B019F1F603A4D2B78002B00D157
:101050006CE13C493A4A0B6801330B601368581C39
:1010600010601B78002BF6D1314E3368354DDB68AC
:101070003048296898473368DB683C480121984725
:1010800000232B603B4A2E4B1A6060E10B68013352
:101090000B601368581C10601B78002BF6D1244D90
:1010A0002B68284A1168DB68334898472B68DB684F
:1010B000264802219847EBE0582B1FD1244B186893
:1010C000184B1B68984212D2134A2C4FBC46012180
:1010D000124E144D4308D36163461380137D1942A9
:1010E000FCD03768BB00C0182B689842F2D3104B75
:1010F0001B68DB68224803219847C9E0592B00D0C0
:101100008DE0134B1E68002E3ED1074B1A681D4B15
:101110001A607DE0301800000040004138020020D5
:10112000300200202C0200207C0200202802002037
:10113000800200207C1800003C02002020020020D9
:1011400024020020340200208800002070180000D3
:10115000880200208C0200201C0200208402002053
:1011600089000020741800006C1800007818000036
:10117000C4180000891800008818000002A5FFFFAD
:101180009418000084000020B608724B1D68724B52
:101190001F68724B5A6880218A435A60002E37D0EC
:1011A000191C01206E4A92460023994690466D4ACA
:1011B0000A800B7D1842FCD053461B68032B16D9BE
:1011C000002E16D04A464B460097B4462E1CB75800
:1011D000009DAF50013347463F68BD08AB420AD27D
:1011E00004326345F3D1009F351C664606E04B464A
:1011F00004E04B4602E0009F351C66465A4A0A80CE
:101200000A7D1042FCD09A00BF18AD18F61ACED154
:10121000564B1B68DB6856480321984738E05A2B29
:1012200036D14D4B1F68534B1B68002B0CD03D1C17
:10123000FF180026311C287800F04CF9011C0135FC
:10124000BD42F8D1061C00E00026484B1B68DB6855
:10125000494801219847311C6B460F336E460736CB
:101260000F252A1C0A400909101C3030092A00DD0C
:1012700007301870013BB342F3D13C4D2B68DB685B
:1012800002A8082198472B68DB683C48032198474F
:101290007A223B4B1A700022364B1A60394B1B786E
:1012A000002B35D0314B1B68DB683748012198474C
:1012B0002EE01A1C303A092A06D82E4A303B15680F
:1012C00029010B43136023E01A1C413A052A06D872
:1012D000284A373B176839010B43136018E01A1C82
:1012E000613A052A06D8234A573B106801010B438F
:1012F00013600DE02C2B06D11E4B174A19681160A4
:1013000000221A6004E01E4A13700022194B1A6072
:101310001E4A1368013313601D4A116801311160C0
:101320001C4A1268934200D2A3E591E50F4E336840
:10133000164DDB681848296898473368DB681748FA
:101340000121984700232B60154A114B1A600F4961
:101350000F4A9BE6840000207C02002000400041F0
:101360003802002044A5FFFF04A5FFFF80020020F3
:1013700098180000880200209C180000A0180000A7
:101380002802002088000020A41800003402002059
:1013900024020020200200207C18000078180000A1
:1013A0008918000010B51E4B4A22995C01200143A8
:1013B00099543522995C0F24A14399549C5C0221D5
:1013C000214399544B215C5C20435854985C0F2175
:1013D00001409954985C202101439954114B196A9A
:1013E00004220A431A62104A104B5A801A1C53787E
:1013F0005BB2002BFBDB0E480E49C4229203FEF7C2
:101400004FFE00230C4A13700C4A13700C4A1370E1
:101410000C4A13700C4A13700C4A137010BDC0466E
:10142000004400410004004014400000000C004053
:101430000008004204C50000900200201A030020AA
:1014400091020020940200201B03002018030020BA
:1014500008B5C1B20248FEF759FE012008BDC046DA
:1014600000080042024B187E4007C00F7047C0467C
:101470000008004208B5FFF7F5FF0028FBD002483E
:10148000FEF74AFE08BDC0460008004208B5FFF757
:10149000E9FF0023002805D0FFF7ECFF031C233BE6
:1014A0005A425341181C08BD70B5041C0E1E06D0CC
:1014B00045182078FFF7CCFF0134AC42F9D1301C3D
:1014C00070BDC04610B5041CFFF7D4FF207001208A
:1014D00010BDC0460B0A584040000902024BC05ADA
:1014E000484080B27047C046D4180000F0B55F464F
:1014F00056464D46E0B4061C8946002928D00024F3
:10150000002718498A46184A9346FFF7B3FFC5B229
:1015100051460B78002B1DD1281C391CFFF7DAFF30
:10152000071C5A461388002B03D1104B1B78002B45
:1015300009D0731C35701E1C4946802903D10A4905
:101540000A88013A0A800134A4B24C45DDD103E097
:10155000002002E0012000E0381C1CBC91469A46A5
:10156000A346F0BD180300209202002019030020BA
:10157000F0B55F4656464D464446F0B483B0019000
:101580008B4600224A4B1A70002903D10122494B95
:101590001A700CE0484B19800022464B1A705A46CC
:1015A000520604D05B4680337F2293439B46404DD6
:1015B0002C1C0026FFF75EFF2B78002B0BD026702B
:1015C000FFF758FFC0B22378002B05D00022384B1C
:1015D0001A70002563E0C0B2432823D071285DD083
:1015E0001528E7D11EE00022314B1A7057E0FF2387
:1015F0001840062809D1009B0133DBB200938023F9
:101600005B429B440199803101915A46002A10D1D6
:101610000420FFF71DFFFFF72DFF0022254B1A7056
:1016200001253CE001230093234988468946214B4C
:101630009A460120FFF70CFF0098FFF709FF009979
:10164000C843C0B2FFF704FF019E80250027424631
:101650001388002B04D151460A780024002A04D0B4
:101660003478013B4A4613800136201CFFF7F0FE18
:10167000201C391CFFF72EFF071C013D002DE6D171
:10168000000AC0B2FFF7E4FEF8B2FFF7E1FEFFF791
:10169000F1FE074B1B78002BA9D0A4E70025281CDE
:1016A00003B03CBC90469946A246AB46F0BDC0464E
:1016B000180300201903002092020020F0B55746BD
:1016C0004E46C0B483B0061C0022414B1A7000295C
:1016D00003D101223F4B1A7004E03F4B19800022D6
:1016E0003C4B1A7064253D4F4320FFF7B1FE3C1C74
:1016F00000E0013CFFF7B6FE002802D1002CF8D133
:1017000001E0002C03D1013D002DEDD159E0012471
:101710002F4D2F1CFFF7AEFE2A78002A04D000229E
:101720002B4B1A7000254CE0FF230340012B02D005
:10173000042B39D03BE001A80221FFF7D7FE301C73
:101740008021FFF7D3FE81463B78002B34D1FFF791
:1017500091FE000280B28246FFF78CFE504480B2B8
:101760001B4A1378012B27D0814509D101AB1B7887
:10177000A34205D1E34301AA5278DBB29A4203D0D7
:101780001820FFF765FE17E00620FFF761FE104BFB
:101790001B78002B04D000220D4B1A70002510E09E
:1017A000631CDCB28036B5E70620FFF751FE00224D
:1017B000084B1A70012504E0054B1B78002BF6D06E
:1017C000E9E7281C03B00CBC91469A46F0BDC04620
:1017D00018030020190300209202002000350C009D
:1017E00010B50023934203D0CC5CC4540133F9E715
:1017F00010BD031C8218934202D019700133FAE71E
:1018000070470000F8B5C046F8BC08BC9E4670475B
:10181000F8B5C046F8BC08BC9E46704712010002ED
:101820000200004041234D000002000000010000C2
:101830000800000010000000200000004000000030
:101840008000000000010000000200000004000011
:10185000511400007514000065140000A914000064
:10186000C514000071150000BD160000322E3000B6
:101870000A0D000076000000200000004E6F762068
:10188000323920323031350031323A33363A35335D
:1018900000000000580A0D00590A0D005A0000000F
:1018A000230A0D003E000000390C0000590C000016
:1018B000790C00009D0C0000B90C00009D0C00008C
:1018C000E10C00005B41726475696E6F3A58595AB9
:1018D0005D00000000002110422063308440A550CC
:1018E000C660E770088129914AA16BB18CC1ADD166
:1018F000CEE1EFF13112100273325222B55294420E
:10190000F772D662399318837BB35AA3BDD39CC3B5
:10191000FFF3DEE36224433420040114E664C77459
:10192000A44485546AA54BB528850995EEE5CFF505
:10193000ACC58DD55336722611163006D776F666AD
:101940009556B4465BB77AA719973887DFF7FEE755
:101950009DD7BCC7C448E5588668A7784008611879
:1019600002282338CCC9EDD98EE9AFF948896999A5
:101970000AA92BB9F55AD44AB77A966A711A500A4D
:10198000333A122AFDDBDCCBBFFB9EEB799B588BF5
:101990003BBB1AABA66C877CE44CC55C222C033C99
:1019A000600C411CAEED8FFDECCDCDDD2AAD0BBD45
:1019B000688D499D977EB66ED55EF44E133E322EED
:1019C000511E700E9FFFBEEFDDDFFCCF1BBF3AAF95
:1019D000599F788F8891A981CAB1EBA10CD12DC1F3
:1019E0004EF16FE18010A100C230E3200450254089
:1019F00046706760B9839893FBA3DAB33DC31CD3E9
:101A00007FE35EF3B1029012F322D23235421452D8
:101A100077625672EAB5CBA5A89589856EF54FE534
:101A20002CD50DC5E234C324A01481046674476428
:101A300024540544DBA7FAB79987B8975FE77EF788
:101A40001DC73CD7D326F2369106B0165766767678
:101A5000154634564CD96DC90EF92FE9C899E98954
:101A60008AB9ABA94458654806782768C018E108C8
:101A70008238A3287DCB5CDB3FEB1EFBF98BD89B28
:101A8000BBAB9ABB754A545A376A167AF10AD01A18
:101A9000B32A923A2EFD0FED6CDD4DCDAABD8BAD74
:101AA000E89DC98D267C076C645C454CA23C832C68
:101AB000E01CC10C1FEF3EFF5DCF7CDF9BAFBABFC8
:101AC000D98FF89F176E367E554E745E932EB23EB8
:081AD000D10EF01E0000000021
:101AD80009024300020100803209040000010202E9
:101AE800000005240010010424020005240600015A
:101AF8000524010001070583030800FF090401000C
:101B0800020A0000000705810240000007050202E2
:101B18004000000000C20100000008006900000049
:081B2800410000000000000074
:04000003000006698A
:00000001FF
